S01D00004D6F746F72204D6963726F636F6E74726F6C6C65722E7372656398
S11300000C9434000C9451000C9451000C94510045
S11300100C9451000C9451000C9451000C94510018
S11300200C9451000C9451000C9451000C94510008
S11300300C9451000C9451000C9451000C945100F8
S11300400C9451000C9451000C9451000C945100E8
S11300500C9451000C9451000C9451000C945100D8
S11300600C9451000C94510011241FBECFEFD8E022
S1130070DEBFCDBF11E0A0E0B1E0E0E5F4E002C0F6
S113008005900D92A430B107D9F721E0A4E0B1E0C6
S113009001C01D92A530B207E1F70E94DF010C9464
S11300A026020C94000080E18093C10086E08093D6
S11300B0C20087E68093C400089514BC95E096BD01
S11300C0823061F018F4813031F011C0833049F08E
S11300D0843051F00CC082E085BD0BC083E085BD47
S11300E008C084E085BD05C085E085BD02C081E00F
S11300F085BDA89BFECF15BC81E085BB0895CF9339
S1130100DF9300D01F92CDB7DEB79A8389836B83C8
S113011089819A81181619066CF48B810E945D00FE
S113012089819A8101979A83898389819A81181692
S113013019069CF30F900F900F90DF91CF910895C3
S1130140EF92FF920F931F93CF93DF931BB8C4E6F4
S1130150D0E06894EE24E2F86894FF24F3F802E017
S113016010E1EBB8609100017091010180910201EE
S1130170909103010E947F00FBB86091000170918F
S1130180010180910201909103010E947F000BB94B
S1130190609100017091010180910201909103012D
S11301A00E947F001BB96091000170910101809150
S11301B00201909103010E947F00219791F61BB8E0
S11301C0609100017091010188E893E10E947F0031
S11301D0DF91CF911F910F91FF90EF900895EF92CF
S11301E0FF920F931F93CF93DF931BB815B8C4E608
S11301F0D0E06894EE24E6F86894FF24F7F800E26F
S113020011E0EBB86091000170910101809102014D
S1130210909103010E947F00FBB8609100017091EE
S1130220010180910201909103010E947F0005B9B0
S113023015B86091000170910101809102019091C3
S113024003010E947F001BB96091000170910101BC
S113025080910201909103010E947F00219789F609
S11302601BB815B8609100017091010188E893E111
S11302700E947F00DF91CF911F910F91FF90EF902B
S11302800895EF92FF920F931F93CF93DF9318B8C3
S1130290C4E6D0E06894EE24E3F86894FF24F2F80E
S11302A000E112E0E8B860910001709101018091D1
S11302B00201909103010E947F00F8B8609100014F
S11302C07091010180910201909103010E947F00CD
S11302D008B960910001709101018091020190912F
S11302E003010E947F0018B960910001709101011F
S11302F080910201909103010E947F00219791F661
S113030018B8609100017091010188E893E10E949E
S11303107F00DF91CF911F910F91FF90EF9008958F
S1130320EF92FF920F931F93CF93DF931BB8C4E612
S1130330D0E06894EE24E3F86894FF24F2F800E136
S113034012E0E5B860910001709101018091020111
S1130350909103010E947F00F5B8609100017091B3
S1130360010180910201909103010E947F0005B96F
S1130370609100017091010180910201909103014B
S11303800E947F0015B96091000170910101809174
S11303900201909103010E947F00219791F61BB8FE
S11303A0609100017091010188E893E10E947F004F
S11303B0DF91CF911F910F91FF90EF9008958FEFF0
S11303C084B98AB98FE187B915B818B81BB81092E7
S11303D0640087E880937A0085E680937C00CAE70E
S11303E0D0E00F2EF9E7CF2ED12CF02D00EC10E049
S11303F00F2EF6ECEF2EF12CF02D0E945300888185
S113040080648883888184FFFDCFF6018081809396
S11304100401F80180818823E4F7F70180818233A5
S113042061F018F4813331F0E8CF833349F0843339
S113043051F0E3CF0E94A000E0CF0E94EF00DDCF97
S11304400E944101DACF0E949001D7CFF894FFCFE8
S10704500100320071
S9030000FC
